S0200000636869656E4B64315F61737369676D656E7430315F6D63752E73726563EE
S11340000070002019450000814500008145000032
S1134010814500008145000081450000000000004A
S113402000000000000000000000000081450000C6
S1134030814500000000000081450000DD4A0000C9
S11340408145000081450000814500008145000054
S11340508145000081450000814500008145000044
S11340608145000081450000814500008145000034
S11340708145000081450000814500008145000024
S11343F0814500008145000081450000FFFFFFFF6B
S1134400044B05481B1A062B02D9044B03B1184769
S1134410704700BF1F88FF1F1C88FF1F000000009B
S113442005490648091A891001EBD171491002D0D7
S1134430034B03B1184770471C88FF1F1C88FF1FDC
S11344400000000010B5064C237843B9FFF7D8FFED
S1134450044B13B10448AFF300800123237010BD53
S11344600000002000000000204D000008B5084BAB
S11344701BB108490848AFF300800848036813B922
S1134480BDE80840CCE7064B002BF9D09847F7E786
S11344900000000004000020204D00001888FF1FC9
S11344A000000000154B002B08BF134B9D46A3F5DD
S11344B0803A00218B460F461348144A121A00F022
S11344C04FFB0F4B002B00D098470E4B002B00D016
S11344D098470020002104000D000D48002802D058
S11344E00C4800F0C7FB00F017FB2000290000F087
S11344F067FA00F001FB00BF000008000070002014
S1134500000000000000000000000020280000203F
S1134510754C00004D4C000072B64FF000014FF096
S113452000024FF000034FF000044FF000054FF07D
S113453000064FF00007B846B946BA46BB46BC462B
S11345400A490B4A521A013A05DD00200423086087
S11345501944043AFBDA0748854607488047074868
S1134560804762B6FFF79EFFFEE700000080FF1F52
S11345700070002000700020AD460000854500005A
S1134580FFF7FEBF80B48FB000AF394B3B63394BAC
S11345903B62394B7B61394BFB62394BFB61394BD5
S11345A03B61394BBB62394BFB60394B7B62394B06
S11345B0BB61394BBB6009E03B6A1A783B6B1A70EC
S11345C03B6B01333B633B6A01333B627A693B6A71
S11345D09A42F1D109E0FB691A78FB6A1A70FB6A06
S11345E00133FB62FB690133FB613A69FB699A425F
S11345F0F1D105E0BB6A00221A70BB6A0133BB62C9
S1134600FA68BB6A9A42F5D109E0BB691A787B6AF9
S11346101A70BB690133BB617B6A01337B62BA6880
S1134620BB699A42F1D10023FB711C4A1C4B9A428C
S113463016D000237B630AE0194A7B6B52F82320CF
S113464016497B6B41F823207B6B01337B63154B4D
S11346509B087A6B9A42EFD3134B104A1A6002E01C
S1134660114B0F4A1A6000BF3C37BD4680BC7047EF
S11346700084FF1F4C4D0000685100001C88FF1F80
S1134680685100006851000000000020280000204C
S11346900000002068510000685100000080FF1FE6
S11346A0004000000004000008ED00E080B400AF0A
S11346B0084B094A5A60074B5B68064B42F22012CA
S11346C01A60044B4FF6FF729A6000BFBD4680BC6F
S11346D0704700BF0020054020C528D980B485B0AC
S11346E000AFF860B96011461A460B46FB711346D9
S11346F0BB71FB68374A934208D1374A364BD3F82B
S1134700243143F08043C2F8243132E0FB68334A59
S1134710934208D1304A304BD3F8283143F08043D8
S1134720C2F8283125E0FB682D4A934208D12A4A71
S1134730294BD3F82C3143F08043C2F82C3118E0D4
S1134740FB68284A934208D1234A234BD3F83031DB
S113475043F08043C2F830310BE0FB68224A9342B5
S113476007D11D4A1C4BD3F8343143F08043C2F8BF
S11347703431FA79F979FB6853F8213023F4E06194
S1134780FB6843F82210FA79F979FB6853F8213071
S113479043F48071FB6843F82210BB79012B09D1E3
S11347A0BB685A69FB79012101FA03F31A43BB6818
S11347B05A6109E0BB685A69FB79012101FA03F3E4
S11347C0DB431A40BB685A6100BF1437BD4680BC46
S11347D0704700BF009004400050064000A0044011
S11347E000B0044000C0044000D0044080B483B052
S11347F000AF78600B46FB701346BB70BB78002B90
S113480005D0FB7801229A407B685A6004E0FB786B
S113481001229A407B689A6000BF0C37BD4680BC79
S11348207047000080B500AF264B1B889BB2013354
S11348309AB2244B1A80234B1B889BB2FF2B02D9BC
S1134840204B00221A80204B1B78DBB29AB21D4BFE
S11348501B889BB29A4205D900220F211B48FFF7FF
S1134860C5FF04E001220F211848FFF7BFFF184BD2
S11348701B78DBB29AB2134B1B889BB29A4205D9C0
S1134880002210211148FFF7B1FF04E0012210219A
S11348900E48FFF7ABFF0F4B1B78DBB29AB2094B04
S11348A01B889BB29A4205D9002200210748FFF7D2
S11348B09DFF04E0012200210448FFF797FF00BF99
S11348C080BD00BF200000201C000020C0F00F406D
S11348D01D0000201E00002080B500AF01230F2220
S11348E011491248FFF7FAFE012310220E490F481E
S11348F0FFF7F4FE012300220B490C48FFF7EEFEFC
S113490001220F210848FFF771FF012210210648F8
S1134910FFF76CFF012200210348FFF767FF0448FB
S113492000F0CAF800BF80BDC0F00F4000C00440D2
S11349302548000080B582B000AF0346FB710B46EA
S1134940BB7113467B7100F07BF8074AFB79137047
S1134950064ABB791370064A7B79137000F077F826
S113496000BF0837BD4680BD1C0000201D0000208C
S11349701E00002080B584B000AF78607B681B0CFB
S1134980FB737B681B0ABB737B687B737A7BB97B85
S1134990FB7B1846FFF7CEFF00BF1037BD4680BD36
S11349A080B483B000AF786000E000BF7B685A1E1B
S11349B07A60002BF9D100BF0C37BD4680BC70472C
S11349C080B500AF00F04AF840F2A93000F05CF87E
S11349D0FFF782FF4FF47F00FFF7CCFF1448FFF787
S11349E0DFFF4FF47F40FFF7C5FF1148FFF7D8FF03
S11349F0FF20FFF7BFFF0E48FFF7D2FF0D48FFF778
S1134A00B9FF0B48FFF7CCFF0B48FFF7B3FF08488B
S1134A10FFF7C6FF6FF07F40FFF7ACFF0448FFF7D6
S1134A20BFFF0020FFF7A6FF0448FFF7B9FFD1E757
S1134A3080841E0000FFFF00AA00B60040420F0061
S1134A4080B400AF72B600BFBD4680BC704780B46E
S1134A5000AF62B600BFBD4680BC704780B400AFF3
S1134A60064B074A5A60054B064A5A60034B00221C
S1134A701A6000BFBD4680BC704700BF00200540DF
S1134A8020C528D928D920C580B483B000AF786068
S1134A90084B00221A60074A7B68013B5360054BB0
S1134AA000229A60034B07221A6000BF0C37BD46F0
S1134AB080BC704710E000E080B582B000AF786041
S1134AC0FFF7BEFF044A7B681360FFF7C0FF00BF17
S1134AD00837BD4680BD00BF2400002080B500AF6C
S1134AE0044B1B68002B02D0024B1B68984700BF85
S1134AF080BD00BF2400002008B50021044600F05A
S1134B0041F8044B1868C36B03B19847204600F082
S1134B1003F900BF1C4D000070B50D4E0D4CA41BD5
S1134B20A4100025A54209D10B4E0C4C00F0F8F856
S1134B30A41BA4100025A54205D170BD56F825304C
S1134B4098470135EEE756F8253098470135F2E7E6
S1134B50404D0000404D0000404D0000484D000015
S1134B6002440346934200D1704703F8011BF9E75E
S1134B70024B13B1024800F07DB8704700000000FA
S1134B804D4C00002DE9F74F2E4B1B6800938046D7
S1134B900F4603F5A47A009BD3F8484156464FF0DC
S1134BA0010B14B903B0BDE8F08F656805F1FF3956
S1134BB0013504EB8505B9F1000F0EDA224B002B09
S1134BC0F0D062682368002A39D1002B37D0204600
S1134BD03360AFF300803468E3E73FB1D5F80021D8
S1134BE0974203D009F1FF39043DE4E761682A687C
S1134BF00139894516BF0023C4F804902B60002AAC
S1134C00F0D0D4F88801636801930BFA09F10142EA
S1134C1008D0D4F88C0101420DD1D5F8801040465B
S1134C20904700E090476268019B9A42B3D1326892
S1134C309442D7D0AFE7D5F880009047F3E72646F3
S1134C401C46AEE71C4D00000000000038B5074DBF
S1134C50074C641BA4101CB9BDE8384000F066B8CA
S1134C60013C55F824309847F5E700BF484D000053
S1134C704C4D0000002301461A46184600F000B8C7
S1134C802DE9F0411F46224B1C680646D4F8480122
S1134C900D46904618B904F5A670C4F84801436857
S1134CA01F2B16DD1B4B1BB94FF0FF30BDE8F08105
S1134CB04FF4C870AFF300800028F5D0D4F8483121
S1134CC0036000214160C4F84801C0F88811C0F8AD
S1134CD08C1144689EB100EB84030122C3F88880E0
S1134CE0D0F88811A2401143022EC0F88811C3F8ED
S1134CF0087102BFD0F88C311A43C0F88C21631CB0
S1134D000234436040F824500020BDE8F08100BF25
S1134D101C4D000000000000FEE700000084FF1F9F
S1134D20F8B500BFF8BC08BC9E467047F8B500BF94
S10B4D30F8BC08BC9E46704764
S10B4D386CF7FF7F010000008D
S10B4D40714B00006D440000FA
S1074D4845440000DA
S1134D4C00000000EC86FF1F5087FF1FB487FF1F75
S1134D5C0000000000000000000000000000000043
S1134D6C0000000000000000000000000000000033
S1134D7C0000000000000000000000000000000023
S1134D8C0000000000000000000000000000000013
S1134D9C0000000000000000000000000000000003
S1134DAC00000000000000000000000000000000F3
S1134DBC00000000000000000000000000000000E3
S1134DCC00000000000000000000000000000000D3
S1134DDC00000000000000000000000000000000C3
S1134DEC00000000000000000100000000000000B2
S1134DFC0E33CDAB34126DE6ECDE05000B00000077
S1134E0C0000000000000000000000000000000092
S1134E1C0000000000000000000000000000000082
S1134E2C0000000000000000000000000000000072
S1134E3C0000000000000000000000000000000062
S90345199E
